{
  "contractName": "AuctionProduct",
  "abi": [
    {
      "anonymous": false,
      "inputs": [
        {
          "indexed": false,
          "internalType": "uint256",
          "name": "p_id",
          "type": "uint256"
        },
        {
          "indexed": false,
          "internalType": "string",
          "name": "p_name",
          "type": "string"
        },
        {
          "indexed": false,
          "internalType": "uint256",
          "name": "p_price",
          "type": "uint256"
        }
      ],
      "name": "ProductCreated",
      "type": "event"
    },
    {
      "constant": true,
      "inputs": [
        {
          "internalType": "uint256",
          "name": "",
          "type": "uint256"
        }
      ],
      "name": "products",
      "outputs": [
        {
          "internalType": "uint256",
          "name": "p_id",
          "type": "uint256"
        },
        {
          "internalType": "string",
          "name": "p_name",
          "type": "string"
        },
        {
          "internalType": "uint256",
          "name": "p_price",
          "type": "uint256"
        },
        {
          "internalType": "bool",
          "name": "init",
          "type": "bool"
        }
      ],
      "payable": false,
      "stateMutability": "view",
      "type": "function"
    },
    {
      "constant": false,
      "inputs": [
        {
          "internalType": "string",
          "name": "p_name",
          "type": "string"
        },
        {
          "internalType": "uint256",
          "name": "p_price",
          "type": "uint256"
        }
      ],
      "name": "createProduct",
      "outputs": [
        {
          "internalType": "uint256",
          "name": "productid",
          "type": "uint256"
        }
      ],
      "payable": true,
      "stateMutability": "payable",
      "type": "function"
    }
  ],
  "bytecode": "0x608060405234801561001057600080fd5b506105a2806100206000396000f3fe6080604052600436106100295760003560e01c80637acc0b201461002e578063e9300c6c146100fb575b600080fd5b34801561003a57600080fd5b506100676004803603602081101561005157600080fd5b81019080803590602001909291905050506101d4565b604051808581526020018060200184815260200183151515158152602001828103825285818151815260200191508051906020019080838360005b838110156100bd5780820151818401526020810190506100a2565b50505050905090810190601f1680156100ea5780820380516001836020036101000a031916815260200191505b509550505050505060405180910390f35b6101be6004803603604081101561011157600080fd5b810190808035906020019064010000000081111561012e57600080fd5b82018360208201111561014057600080fd5b8035906020019184600183028401116401000000008311171561016257600080fd5b91908080601f016020809104026020016040519081016040528093929190818152602001838380828437600081840152601f19601f820116905080830192505050505050509192919290803590602001909291905050506102b6565b6040518082815260200191505060405180910390f35b600081815481106101e157fe5b9060005260206000209060040201600091509050806000015490806001018054600181600116156101000203166002900480601f0160208091040260200160405190810160405280929190818152602001828054600181600116156101000203166002900480156102935780601f1061026857610100808354040283529160200191610293565b820191906000526020600020905b81548152906001019060200180831161027657829003601f168201915b5050505050908060020154908060030160009054906101000a900460ff16905084565b60008080548091906001016102cb91906103fb565b905080600082815481106102db57fe5b90600052602060002090600402016000018190555082600082815481106102fe57fe5b9060005260206000209060040201600101908051906020019061032292919061042d565b50816000828154811061033157fe5b9060005260206000209060040201600201819055507f418d4005ee80a6584eef7f51de08850f7f79c3e7b464f15ef3f236423d964b088184846040518084815260200180602001838152602001828103825284818151815260200191508051906020019080838360005b838110156103b657808201518184015260208101905061039b565b50505050905090810190601f1680156103e35780820380516001836020036101000a031916815260200191505b5094505050505060405180910390a180905092915050565b8154818355818111156104285760040281600402836000526020600020918201910161042791906104ad565b5b505050565b828054600181600116156101000203166002900490600052602060002090601f016020900481019282601f1061046e57805160ff191683800117855561049c565b8280016001018555821561049c579182015b8281111561049b578251825591602001919060010190610480565b5b5090506104a99190610500565b5090565b6104fd91905b808211156104f9576000808201600090556001820160006104d49190610525565b60028201600090556003820160006101000a81549060ff0219169055506004016104b3565b5090565b90565b61052291905b8082111561051e576000816000905550600101610506565b5090565b90565b50805460018160011615610100020316600290046000825580601f1061054b575061056a565b601f0160209004906000526020600020908101906105699190610500565b5b5056fea265627a7a723158204f9cd5992c511ede3f8fff464a5234c5f01b6d25a2e4fcfad9ec767105dece1264736f6c63430005100032",
  "source": "pragma solidity >=0.4.0 <0.7.0;\n\ncontract AuctionProduct {\n// KHAI BÁO\n//1.\n    struct Product {\n        uint p_id;\n        string p_name;\n        uint256 p_price;   // Giá sàn (giá tối thiểu đặt)\n        bool init;\n    }\n\n    Product[] public products;\n\n    // Các Hàm Tạo sự kiện\n    event ProductCreated(uint p_id, string p_name, uint p_price);\n\n// CÁC GHI DỮ LIỆU VÀO MẠNG BLOCKCHAIN\n//1. Ghi dữ liệu sản phẩm trong giỏ hàng được người sử dụng đấu giá\n    function createProduct(\n                            string memory p_name,\n                            uint256 p_price\n                        )  payable public returns (uint productid){\n\n         /// Ghi dữ liệu sản phẩm người mua đặt giá\n            productid = products.length++;\n            products[productid].p_id = productid;\n            products[productid].p_name = p_name;\n            products[productid].p_price = p_price;\n         /// Tạo sự kiện khi tạo giao dịch đấu giá trên mỗi sản phẩm\n        emit ProductCreated(productid, p_name,p_price);\n        return productid;\n    }\n}",
  "sourcePath": "C:/xampp/htdocs/auctiondemo/smartcontract/Auction/contracts/AuctionProduct.sol",
  "compiler": {
    "name": "solc",
    "version": "0.5.16+commit.9c3226ce.Emscripten.clang"
  },
  "schemaVersion": "3.2.5",
  "updatedAt": "2020-09-27T02:22:09.938Z",
  "networkType": "ethereum",
  "devdoc": {
    "methods": {}
  },
  "userdoc": {
    "methods": {}
  }
}